:020000040800F2
:1000000000000220B91B0008C91A0008D51A000810
:10001000E11A0008ED1A0008F91A000800000000B3
:10002000000000000000000000000000051B0008A8
:10003000111B0008000000001D1B0008291B000800
:10004000351B0008411B00084D1B0008591B000808
:10005000651B0008711B00087D1B0008891B000838
:0C006000951B0008A11B0008AD1B000848
:1000700010B5054C237833B9044B13B10448AFF3E2
:1000800000800123237010BD0C020020000000003E
:10009000E074000808B5034B1BB103490348AFF3F4
:1000A000008008BD0000000010020020E07400087D
:1000B00003685A004CBF43F0004323F00043184448
:1000C000704700BF2DE9F84329B34F1E044615467B
:1000D0003E464FF0000808EB060101EBD1714910D4
:1000E00004EBC1094846FFF7E3FF0346C8000830A8
:1000F0008F42204409D0AB4209D8FFF7D9FF01381D
:10010000A8420AD201F10108E5E7AB4205D98845CA
:1001100001D04E1EDFE74FF000094846BDE8F883E6
:10012000012807D0022807D0044B00280CBF18462E
:10013000002070470248704702487047F9070008DE
:10014000FD0700080108000830B5234B83B00446C2
:100150008D1E3BB301A92846AFF30080E8B1019999
:100160002A46FFF7AFFF0146B8B1FFF7A1FF4B6882
:10017000A064012B2CD0002B01F1040024DBFFF73D
:1001800097FF0023C4E913030368002B11DBFFF77B
:100190008FFF2061002003B030BD002309202361C0
:1001A00003B030BD0D4B0E49C91AC9101846019154
:1001B000D6E7C3F30360FFF7B3FF0028206114BF45
:1001C0000020092003B030BD0123C4E91303DBE79D
:1001D000002323610520DEE700000000CC7B00083F
:1001E000A47C00080368DA0710B5044606D49B0710
:1001F00000F1480009D500F05BFC2368590709D5D8
:100200001A070ED5DB0613D510BD00F049FC236894
:100210005907F5D404F1D00000F052FC23681A0706
:10022000F0D404F5A87000F053FC2368DB06EBD48F
:1002300004F5E870BDE8104000F08EBC092070475E
:100240000346006800B11844704700BF704700BF04
:1002500070B504460E46316C2046FFF775FF054623
:1002600088B9326C62612369324621460120984781
:100270000828F0D0072806D12846316CFFF7E6FFA2
:10028000301D00F001FC02F073FA00BF2DE9F047C9
:100290000D1DD0F80C80D0F81890074614460FCDED
:1002A000ADF5727D0DF10C0CACE80F000FCDACE894
:1002B0000F000FCDACE80F0095E80F0002AE4FF035
:1002C000000E8CE80F00C6F800E020E0336C7B6184
:1002D0004FF4F07231467AA802F062FA3B697AAACA
:1002E000394650469847889B73642146CDE900699A
:1002F00005463B463A460120C0470446E0B94FF464
:10030000F0727AA9304602F04BFA082D1AD1316CFE
:100310003846FFF719FF09345FFA84FA05460028CA
:10032000D4D0B36B73643A46CDE900693B464AF0DA
:1003300010010120C04700B1092528460DF5727D46
:10034000BDE8F087072DF7D12046316CFFF77EFF1F
:1003500003A800F099FB00BF406C7047F0B5CB6B71
:100360000B6401F1040C0E460546BCE80F00F9B021
:1003700001AC0FC4BCE80F000FC4BCE80F000FC4F1
:100380009CE80F004FF0FF3784E80F00009706E06D
:100390002B696A46294698470828044608D11099CF
:1003A0002846FFF7D1FE0028F2D0092079B0F0BD31
:1003B0006846FFF717FF062CF7D131462846FFF7AE
:1003C00047FF00BFC160D96B8261196400221946E2
:1003D0005CE700BF70B5C66843690B64AEB90369DA
:1003E0000A4604460D46014602209847072805D0D4
:1003F00008280FD129462046FFF72AFF3046296CEE
:10040000FFF724FF281D00F03FFB0122FFF73EFF0E
:1004100002F0AEF902F0ACF9C2681AB1CA6B0A6414
:10042000002233E79AE700BF704700BF83680146A8
:100430000BB1012018477047012912D009D873B9B0
:100440000F2A0CD800EB820218465368009A1360FA
:1004500070470339012994BF012002207047022010
:1004600070470846704700BF00B585B00A460023B4
:1004700003A900911946FFF7DFFF039805B05DF867
:1004800004FB00BF012912D009D873B90F2A0CD878
:1004900000EB8200009A12684260184670470339E8
:1004A000012994BF012002207047022070470846AE
:1004B000704700BF10B584B0002303AC03920094D2
:1004C0000A461946FFF7DEFF04B010BD70B5D36BC6
:1004D000136402F1040C05460C46BCE80F00ADF5B0
:1004E0000E7D0DF15C0EAEE80F00BCE80F00AEE82B
:1004F0000F00BCE80F00AEE80F009CE80F004FF0C3
:10050000FF368EE80F00169610E0FFF7D3FF214666
:1005100016A8A847034616AA6946082083B9049B73
:100520009847052806460CD0092809D02699684620
:10053000FFF70AFE03466A460C2116A8002BE4D0FA
:10054000092616A8FFF74EFE30460DF50E7D70BD4C
:100550002DE9F04FCC6C89B01E4654F8043B06944C
:100560000D46174600F00308002E79D01A0C1B0424
:1005700005938DF81D200223D2B204EB82048DF87E
:100580001C302B6DB8F1020F08BFAC6B13F00103E8
:100590000CD005A9384600F079FB18B9082009B03D
:1005A000BDE8F08F092009B0BDE8F08FD4F800A0B5
:1005B000BAF1000FEDD0019300F008030293022E70
:1005C0004AD0B4F800A0B4F802900434AB6C29F01F
:1005D000010B0F2138469B44FFF746FF834539D86E
:1005E0002AF001039B44834594BF002001204FEA79
:1005F000490303F002030AF0010A43EA0A03012B4C
:1006000049D0022B32D0002BCCD1B8F1000F02D050
:10061000002840F0CD800434D4F800A0BAF1000FD7
:10062000CDD105A9384600F031FB0028BAD1019B95
:10063000002BB3D00F213846FFF716FF0E210246DC
:100640003846FFF737FF38466A4A0F21FFF732FF77
:100650000720A8E70020CAE7D4F804900834B5E7DB
:100660001B0205930323ADF81C308AE7236823F0AF
:10067000004BB8F1000F45D128B1029A002A5CD096
:10068000BBF1000F74D0002B00DA04340BF1010B26
:1006900004EB8B04C0E7B8F1000F19D1B0B1636867
:1006A0002268991C4FEAD2723FF47CAF05F15801E1
:1006B0000133049100F09080201DFFF7C1FD04ABD1
:1006C0000146284601F0F6FB00285BD10834A3E779
:1006D0000D213846D5F82090FFF7C6FE8145F5D1AB
:1006E000AB6A9C42F2D12046FFF7E2FC0F210246A2
:1006F0003846FFF7DFFE38462A460021FFF7DAFECC
:10070000072050E70D213846D5F82090FFF7ACFEC2
:10071000814501D02368B6E7AB6A9C42FAD1042335
:100720000022C5E90B23E318C5F828B06B632368E2
:10073000002B59DB01230193A8E705F15803CDF8FD
:100740000C8004F1040AB04691461E460EE0504665
:100750000496FFF775FD0022014604AB284609F117
:1007600001090AF1040A01F0A5FBE0B9D945EED16F
:100770000D213846FFF778FE049BAC62C5E90803FB
:10078000062010E781460D213846FFF76DFEB9F1CE
:10079000020F286225D12B46049A43F82C2F6B6256
:1007A000AC620620FFE646462368DDF80C806AE767
:1007B0002046FFF77DFC04340246AC63284614460D
:1007C00001F0D6FB00283FF4EDAE384622460F215B
:1007D000FFF770FE0720E6E60D213846FFF744FEDE
:1007E0002862049B6B62DBE70BF1010004EB8000E5
:1007F0007AE700BFB12600080023A9E60123A7E697
:100800000223A5E62DE9F0430646C3B015461C4673
:10081000042900F2BF80DFE801F09E57BD2D0300E0
:10082000002C40F0B780102A00F2B4800368D8068C
:1008300000F1F98020AF384600F098F9B46B3946E2
:1008400000234FF0010C0CFA03F22A42204603F178
:10085000010303D050F8042B0A600446042B01F175
:100860000401F0D13846B46300F076F9002043B0BB
:10087000BDE8F083032C40F08D8094B204EB12436A
:10088000102B4FEA124500F2858003681F0700F124
:10089000D28020AF384600F03DF9B26B07EBC501BE
:1008A00054B10B46D01A01EBC401E4001D5843F8C3
:1008B000045B8B42FAD122443846B26300F008F957
:1008C000002043B0BDE8F083012C4FEA124895B2F6
:1008D0005CD0052C5ED108EB0509B9F1200F59D881
:1008E000B8F10F0F79D9A946002D40F08A80B36B7B
:1008F0006DB320AF4FF0000907EBC807043F03EBCF
:10090000C50553F8041B47F8041FAB42F9D1B9F1F0
:10091000000F0FD06F464146102938BF102107EB5A
:10092000C101843903EBC90553F8040B41F8040FE6
:10093000AB42F9D1012C00F08680B8F10F0FB563FE
:1009400047D9B9F1000F02D0684600F0B9F800208D
:1009500043B0BDE8F083ECB9806B23461FFA82FCFC
:100960000124371D04FA03F212EA0C0F014604D0E9
:1009700051F8042B47F8232008460133102BF1D1FE
:1009800015F40055E3D1B063284604E008EB0503F5
:10099000102B03D9022043B0BDE8F083B8F10F0F4C
:1009A000F8D83368DA0706D5304623F0030340F859
:1009B000483B00F079F820AF384600F075F8B36B8B
:1009C000002D97D11D460435B563384600F068F810
:1009D000BDE720A800F06CF8B3E7B9F1100F40D9DB
:1009E000A9F110093368D90708D523F0010330466F
:1009F00043F0020340F8483B00F05EF8B9F1000F05
:100A000032D033685A0720D4B8F10F0F25D96F467A
:100A10003846C8F1100500F057F8002DB36B7FF78A
:100A20007AAF20AF68E723F01003336006F5E87073
:100A300000F09CF8FEE623F00803036000F5A870C0
:100A400000F068F825E720AFBDE7304623F0040347
:100A500040F8D03B00F038F8D6E720A800F02CF89A
:100A6000D5E74FF00009BDE7B8F10F0F3FF63FAFF4
:100A700020AF384600F020F8B36B002D7FF43AAF7A
:100A8000384600F015F862E700F1340191E83800CB
:100A90009C46A6464CF8045D90E8FF0FE54600BD75
:100AA00090EC210B704700BF80EC210B704700BF1A
:100AB00090EC200B704700BF80EC200B704700BF0C
:100AC000D0EC200B704700BFC0EC200B704700BF7C
:100AD000F0EC0201F0EC0211F0EC0221F0EC02313A
:100AE000F0EC0241F0EC0251F0EC0261F0EC02712A
:100AF000F0EC0281F0EC0291F0EC02A1F0EC02B11A
:100B0000F0EC02C1F0EC02D1F0EC02E1F0EC02F109
:100B1000704700BFE0EC0201E0EC0211E0EC0221C2
:100B2000E0EC0231E0EC0241E0EC0251E0EC026169
:100B3000E0EC0271E0EC0281E0EC0291E0EC02A159
:100B4000E0EC02B1E0EC02C1E0EC02D1E0EC02E149
:100B5000E0EC02F1704700BFB0FC0181B0FC0191F4
:100B6000B0FC01A1B0FC01B1704700BFA0FC018145
:100B7000A0FC0191A0FC01A1A0FC01B1704700BF45
:100B8000EC4600B52DE900502DE9FF1F4FF00003A2
:100B90002DE90C0001A9FFF7E1FBDDF840E012B000
:100BA000704700BFEC4600B52DE900502DE9FF1F4E
:100BB0004FF000032DE90C0001A9FFF70BFCDDF855
:100BC00040E012B0704700BFEC4600B52DE9005080
:100BD0002DE9FF1F4FF000032DE90C0001A9FFF7DD
:100BE0001BFCDDF840E012B0704700BFEC4600B5DA
:100BF0002DE900502DE9FF1F4FF000032DE90C00F7
:100C000001ABFFF7DFFBDDF840E012B0704700BF3B
:100C1000EC4600B52DE900502DE9FF1F4FF0000311
:100C20002DE90C0001AAFFF751FCDDF840E012B0FD
:100C3000704700BF027A03467AB9427AA2B141688E
:100C4000013A10B44272086803220C1D1A720202A3
:100C50005C60000E10BC1A6070470068013A1A729E
:100C600002021A60000E7047B020704700B585B0D0
:100C7000002303AA009219460C22FFF7DDFB03981C
:100C800005B05DF804FB00BFF0E700BF2DE9F043BD
:100C9000054685B00E464FF000083046FFF7CAFF04
:100CA000B028044600F0BA80070620D500F0F00313
:100CB000802B4DD0902B36D0A02B60D0B02B74D091
:100CC000C02B00F08B8000F0F803D02B0BD100F08C
:100CD00007020132052342F4002201212846FFF7D2
:100CE00091FD0028D9D0092005B0BDE8F08383002C
:100CF000DBB21F1D0DF10C0900231946CDF8009041
:100D00000D222846FFF798FB039BCDF80090600664
:100D10004CBFDF1BFF1800230D22194628460397FE
:100D2000FFF7B0FBB9E700F00D030D2BDBD003AFED
:100D3000002300F00F02194600972846FFF77CFBBE
:100D4000002300970D2219462846FFF79BFBA4E7D6
:100D50003046FFF76FFF24022043B0F5004FC2D0AA
:100D600004010023A2B219462846FFF74BFD0028D4
:100D7000B9D114F4004F18BF4FF001088DE7C243FA
:100D800002F007034FF47F621A41010702F47F6209
:100D90004FF0000348BF42F4804219462846FFF74F
:100DA00031FD00283FF479AF9DE7B1283BD0B22850
:100DB00000F09380B32841D000F0FC03B42B92D014
:100DC00000F007020132012342F4002219462846AE
:100DD000FFF718FD00283FF460AF84E7C6284AD02B
:100DE000C72854D000F0F803C02B63D0C82868D0BF
:100DF000C9287FF478AF3046FFF71CFF020300F0EC
:100E00000F0002F47022013002430121052328461D
:100E1000FFF7F8FC00283FF440AF64E7B8F1000F9B
:100E200018D0002060E73046FFF704FF0246002894
:100E30003FF459AF10F0F003C8D054E73046FFF745
:100E4000F9FE020300F00F03013302F470221A438B
:100E50000123BBE703AC43460E22414600942846DB
:100E6000FFF7EAFA009443460F2241462846FFF76F
:100E700009FB404638E73046FFF7DCFE020300F08E
:100E80000F03013302F470221A4303239EE7304616
:100E9000FFF7D0FE024600283FF425AF10F0F00324
:100EA0007FF421AF04212846FFF7ACFC00283FF473
:100EB000F4AE18E700F00F020132032342F42022BF
:100EC00084E73046FFF7B6FE00F0F00200F00F03B3
:100ED0001032013343EA023297E700230DF10C0987
:100EE0000D221946CDF800902846FFF7A5FA3046A6
:100EF000FFF7A0FE02064FF002040CD5039B00F0A2
:100F00007F00A040184403903046FFF793FE03068D
:100F100004F10704F2D4039BCDF8009000F07F02A7
:100F2000A24003F501731A440023039219460D22CF
:100F30002846FFF7A7FAB0E610B5C26C536884B034
:100F40004FF0030C08321C0208461B0E01A9019445
:100F500002928DF80CC08DF80D30FFF797FE04B0AB
:100F600010BD00BF08B5FFF78FFE806C08BD00BF45
:100F700008B5FFF789FEC06CC379023300EB83002C
:100F800008BD00BF10F8012B11F8013B012A28BF52
:100F90009A42F7D0D01A7047034613F8012B002A63
:100FA000FBD1181A01387047000000000000000053
:100FB00001F0FF01102A2BDB10F0070F08D010F80A
:100FC000013B013A8B422DD010F0070F42B3F6D10E
:100FD000F0B441EA012141EA014122F007047FF027
:100FE00000070023F0E80256083C85EA010586EA7E
:100FF000010685FA47F5A3FA87F586FA47F6A5FABA
:1010000087F68EB9EED1F0BC01F0FF0102F00702C5
:1010100032B110F8013B013A83EA010313B1F8D170
:101020000020704701387047002D06BF3546033851
:10103000073815F0010F07D1013015F4807F02BF8A
:10104000013015F4C03F0130F0BC0138704700BFDB
:1010500081F0004102E000BF83F0004330B54FEA69
:1010600041044FEA430594EA050F08BF90EA020FD6
:101070001FBF54EA000C55EA020C7FEA645C7FEA69
:10108000655C00F0E2804FEA5454D4EB5555B8BF8C
:101090006D420CDD2C4480EA020281EA030382EAFD
:1010A000000083EA010180EA020281EA0303362D8F
:1010B00088BF30BD11F0004F4FEA01314FF4801C62
:1010C0004CEA113102D0404261EB410113F0004F74
:1010D0004FEA03334CEA133302D0524263EB43032B
:1010E00094EA050F00F0A780A4F10104D5F1200EC9
:1010F0000DDB02FA0EFC22FA05F2801841F1000124
:1011000003FA0EF2801843FA05F359410EE0A5F1F7
:1011100020050EF1200E012A03FA0EFC28BF4CF028
:10112000020C43FA05F3C01851EBE37101F00045DE
:1011300007D54FF0000EDCF1000C7EEB00006EEBEB
:101140000101B1F5801F1BD3B1F5001F0CD3490875
:101150005FEA30004FEA3C0C04F101044FEA4452CC
:1011600012F5800F80F09A80BCF1004F08BF5FEA53
:10117000500C50F1000041EB045141EA050130BD33
:101180005FEA4C0C404141EB0101013C28BFB1F545
:10119000801FE9D291F0000F04BF01460020B1FA90
:1011A00081F308BF2033A3F10B03B3F120020CDA63
:1011B0000C3208DD02F1140CC2F10C0201FA0CF041
:1011C00021FA02F10CE002F11402D8BFC2F1200CA6
:1011D00001FA02F120FA0CFCDCBF41EA0C0190405C
:1011E000E41AA2BF01EB0451294330BD6FEA0404A5
:1011F0001F3C1CDA0C340EDC04F11404C4F1200290
:1012000020FA04F001FA02F340EA030021FA04F3A1
:1012100045EA030130BDC4F10C04C4F1200220FAF8
:1012200002F001FA04F340EA0300294630BD21FA36
:1012300004F0294630BD94F0000F83F4801306BFFC
:1012400081F480110134013D4EE77FEA645C18BFF0
:101250007FEA655C29D094EA050F08BF90EA020F87
:1012600005D054EA000C04BF1946104630BD91EA7F
:10127000030F1EBF0021002030BD5FEA545C05D182
:101280004000494128BF41F0004130BD14F58004C1
:101290003CBF01F5801130BD01F0004545F0FE4135
:1012A00041F470014FF0000030BD7FEA645C1ABF6A
:1012B000194610467FEA655C1CBF0B46024650EAA1
:1012C000013406BF52EA033591EA030F41F40021CD
:1012D00030BD00BF90F0000F04BF0021704730B553
:1012E0004FF4806404F132044FF000054FF0000128
:1012F00050E700BF90F0000F04BF0021704730B5E9
:101300004FF4806404F1320410F0004548BF4042BD
:101310004FF000013EE700BF42004FEAE2014FEA12
:1013200031014FEA02701FBF12F07F4393F07F4FED
:1013300081F06051704732F07F4208BF704793F0F0
:101340007F4F04BF41F40021704730B54FF4607403
:1013500001F0004521F000411CE700BF50EA010206
:1013600008BF704730B54FF000050AE050EA0102AF
:1013700008BF704730B511F0004502D5404261EB1F
:1013800041014FF4806404F132045FEA915C3FF460
:10139000D8AE4FF003025FEADC0C18BF03325FEAFD
:1013A000DC0C18BF033202EBDC02C2F1200300FAAE
:1013B00003FC20FA02F001FA03FE40EA0E0021FAD3
:1013C00002F11444BDE600BF70B54FF0FF0C4CF4C1
:1013D000E06C1CEA11541DBF1CEA135594EA0C0F73
:1013E00095EA0C0F00F0DEF82C4481EA030621EAAE
:1013F0004C5123EA4C5350EA013518BF52EA0335E9
:1014000041F4801143F4801338D0A0FB02CE4FF09A
:101410000005E1FB02E506F00042E0FB03E54FF0CA
:101420000006E1FB03569CF0000F18BF4EF0010EC2
:10143000A4F1FF04B6F5007F64F5407404D25FEABE
:101440004E0E6D4146EB060642EAC62141EA555171
:101450004FEAC52040EA5E504FEACE2EB4F1FD0CB3
:1014600088BFBCF5E06F1ED8BEF1004F08BF5FEA31
:10147000500E50F1000041EB045170BD06F00046E3
:1014800046EA010140EA020081EA0301B4EB5C0490
:10149000C2BFD4EB0C0541EA045170BD41F4801188
:1014A0004FF0000E013C00F3AB8014F1360FDEBFAD
:1014B000002001F0004170BDC4F10004203C35DA89
:1014C0000C341BDC04F11404C4F1200500FA05F30C
:1014D00020FA04F001FA05F240EA020001F00042AD
:1014E00021F0004110EBD37021FA04F642EB060123
:1014F0005EEA430E08BF20EAD37070BDC4F10C044D
:10150000C4F1200500FA04F320FA05F001FA04F210
:1015100040EA020001F0004110EBD37041F10001FC
:101520005EEA430E08BF20EAD37070BDC4F1200507
:1015300000FA05F24EEA020E20FA04F301FA05F26F
:1015400043EA020321FA04F001F0004121FA04F217
:1015500020EA020000EBD3705EEA430E08BF20EAE7
:10156000D37070BD94F0000F0FD101F00046400021
:1015700041EB010111F4801F08BF013CF7D041EAA3
:10158000060195F0000F18BF704703F000465200A7
:1015900043EB030313F4801F08BF013DF7D043EA78
:1015A0000603704794EA0C0F0CEA135518BF95EA2E
:1015B0000C0F0CD050EA410618BF52EA4306D1D1B5
:1015C00081EA030101F000414FF0000070BD50EAD4
:1015D000410606BF1046194652EA430619D094EA5E
:1015E0000C0F02D150EA013613D195EA0C0F05D148
:1015F00052EA03361CBF104619460AD181EA03019C
:1016000001F0004141F0FE4141F470014FF0000053
:1016100070BD41F0FE4141F4780170BD70B54FF0EE
:10162000FF0C4CF4E06C1CEA11541DBF1CEA13556E
:1016300094EA0C0F95EA0C0F00F0A7F8A4EB050450
:1016400081EA030E52EA03354FEA013100F0888047
:101650004FEA03334FF0805545EA131343EA126310
:101660004FEA022245EA111545EA10654FEA0026C5
:101670000EF000419D4208BF964244F1FD0404F57E
:10168000407402D25B084FEA3202B61A65EB0305DA
:101690005B084FEA32024FF480104FF4002CB6EB97
:1016A000020E75EB030E22BFB61A754640EA0C0017
:1016B0005B084FEA3202B6EB020E75EB030E22BF57
:1016C000B61A754640EA5C005B084FEA3202B6EB98
:1016D000020E75EB030E22BFB61A754640EA9C0057
:1016E0005B084FEA3202B6EB020E75EB030E22BF27
:1016F000B61A754640EADC0055EA060E18D04FEAE5
:10170000051545EA16754FEA06164FEAC30343EA84
:1017100052734FEAC2025FEA1C1CC0D111F4801F51
:101720000BD141EA00014FF000004FF0004CB6E74A
:1017300011F4801F04BF01430020B4F1FD0C88BFE9
:10174000BCF5E06F3FF6AFAEB5EB030C04BFB6EBF4
:10175000020C5FEA500C50F1000041EB045170BDE7
:101760000EF0004E4EEA113114EB5C04C2BFD4EB14
:101770000C0541EA045170BD41F480114FF0000E98
:10178000013C90E645EA060E8DE60CEA135594EA14
:101790000C0F08BF95EA0C0F3FF43BAF94EA0C0F17
:1017A0000AD150EA01347FF434AF95EA0C0F7FF48C
:1017B00025AF104619462CE795EA0C0F06D152EAE0
:1017C00003353FF4FDAE1046194622E750EA4106C4
:1017D00018BF52EA43067FF4C5AE50EA41047FF4D5
:1017E0000DAF52EA43057FF4EBAE12E74FF0FF3C3A
:1017F00006E000BF4FF0010C02E000BF4FF0010C0B
:101800004DF804CD4FEA410C7FEA6C5C4FEA430C83
:1018100018BF7FEA6C5C1BD001B050EA410C0CBFD2
:1018200052EA430C91EA030F02BF90EA020F002034
:10183000704710F1000F91EA030F58BF994208BF9B
:1018400090422CBFD8176FEAE37040F00100704758
:101850004FEA410C7FEA6C5C02D150EA013C07D1AF
:101860004FEA430C7FEA6C5CD6D152EA033CD3D0FA
:101870005DF8040B704700BF8446104662468C46F4
:101880001946634600E000BF01B5FFF7B7FF002827
:1018900048BF10F1000F01BD4DF808EDFFF7F4FF50
:1018A0000CBF012000205DF808FB00BF4DF808EDDB
:1018B000FFF7EAFF34BF012000205DF808FB00BFFE
:1018C0004DF808EDFFF7E0FF94BF012000205DF820
:1018D00008FB00BF4DF808EDFFF7CEFF94BF0120D5
:1018E00000205DF808FB00BF4DF808EDFFF7C4FFCE
:1018F00034BF012000205DF808FB00BF4FEA410C17
:101900007FEA6C5C02D150EA013C0AD14FEA430CF9
:101910007FEA6C5C02D152EA033C02D14FF0000036
:1019200070474FF0010070474FEA410212F5001274
:1019300015D211D56FF47873B3EB625212D94FEA16
:10194000C12343F0004343EA505311F0004F23FA00
:1019500002F018BF404270474FF00000704750EA55
:10196000013005D111F0004008BF6FF00040704712
:101970004FF00000704700BF4A0011D212F500126C
:1019800011D20DD56FF47873B3EB62520ED44FEAD7
:10199000C12343F0004343EA505323FA02F0704757
:1019A0004FF00000704750EA013002D14FF0FF3095
:1019B00070474FF0000070474FEA4102B2F1E04338
:1019C00024BFB3F5001CDCF1FE5C0DD901F0004C26
:1019D0004FEAC0024CEA5070B2F1004F40EB830076
:1019E00008BF20F00100704711F0804F21D113F1A2
:1019F0003872BCBF01F00040704741F480114FEADB
:101A00005252C2F11802C2F1200C10FA0CF320FA63
:101A100002F018BF40F001004FEAC1234FEAD32380
:101A200003FA0CFC40EA0C0023FA02F34FEA4303EA
:101A3000CCE77FEA625307D150EA01331EBF4FF073
:101A4000FE4040F44000704701F0004040F0FE408E
:101A500040F40000704700BF38B505460C462846E4
:101A6000214600220023FFF721FF28B928462146FE
:101A7000BDE8384000F00AB8284604F1004100F003
:101A800005F8404261EB410138BD00BFD0B50C4BB9
:101A9000002206460F46FFF797FCFFF76DFF04464E
:101AA000FFF718FC074B0022FFF78EFC02460B469F
:101AB00030463946FFF7D0FAFFF75EFF2146D0BD2A
:101AC0000000F03D0000F041684620F007018D461F
:101AD00001B4FEE7684620F007018D4601B4FEE739
:101AE000684620F007018D4601B4FEE7684620F005
:101AF00007018D4601B4FEE7684620F007018D46D8
:101B000001B4FEE7684620F007018D4601B4FEE708
:101B1000684620F007018D4601B4FEE7684620F0D4
:101B200007018D4601B4FEE7684620F007018D46A7
:101B300001B4FEE7684620F007018D4601B4FEE7D8
:101B4000684620F007018D4601B4FEE7684620F0A4
:101B500007018D4601B4FEE7684620F007018D4677
:101B600001B4FEE7684620F007018D4601B4FEE7A8
:101B7000684620F007018D4601B4FEE7684620F074
:101B800007018D4601B4FEE7684620F007018D4647
:101B900001B4FEE7684620F007018D4601B4FEE778
:101BA000684620F007018D4601B4FEE7684620F044
:101BB00007018D4601B4FEE710B50F4A0F4BD21A4C
:101BC0000F4BD118994203D019460C4800F0E8FD9C
:101BD0000C4B0D4A934203D0002243F8042BF8E744
:101BE0000A4C0B4B9C4203D054F8043B9847F8E74F
:101BF00000F064F8FEE700BF0C0200202400002083
:101C0000F87400080C020020F4020020A47C0008F4
:101C1000AC7C0008014B0360704700BF34750008BE
:101C2000024A0260024A0260704700BF4475000821
:101C30003475000810B50446034B0360042100F01E
:101C400013F9204610BD00BF3475000810B50446D6
:101C5000044B0360044B0360102100F005F920469B
:101C600010BD00BF447500083475000870470000BF
:101C7000012800D0704708B54FF6FF73994200D095
:101C800008BD0848FFF7F2FF074B18600748FFF749
:101C9000EDFF074B18600748FFF7E8FF064B186099
:101CA000EEE700BF3038024028020020000002406A
:101CB0002C020020140002403002002000B585B044
:101CC000114B1B68114A126811490968684600F0F7
:101CD0002FF80EE0002300E001330E4A9342FBDDB3
:101CE000684600F047F8002300E00133094A9342B8
:101CF000FBDD684600F038F8ECE7074B0093074B34
:101D0000009300F0B3F800BF300200202C02002046
:101D1000280200201FA10700447500083475000840
:101D200008B54FF6FF710120FFF7A2FF08BD0000C4
:101D300010B40B4C04600B4C0460002444608460BD
:101D4000C46041608260C3600B6843F001030B60B4
:101D50008268136843F48063136010BC704700BF4F
:101D60003475000844750008C268136843F0200306
:101D700013607047C268136823F020031360704734
:101D80007FB500241023CDE90234036815469E690F
:101D900012686B46CDE90044B0479DF8043003F06B
:101DA0000603062B03BF009B2B600120204604B0D6
:101DB00070BD0098904214BF0120062070470000BB
:101DC00010B5034B0360044600F02BFC204610BD09
:101DD0008475000810B50446FFF7F2FF204608217D
:101DE00000F042F8204610BD2DE9F0411F46DDE924
:101DF0000834DDF8188098450646154607D107993E
:101E000000F012FC18B165710020BDE8F081394680
:101E1000304600F009FC0028F6D00123C4F8008009
:101E20002571A371F0E738B515461C4600F0FCFBA0
:101E300020B10823E36006232560237138BD2DE916
:101E4000F04105460C4616461F4600F0EDFB48B92A
:101E5000032F07D823683246294620465B69BDE830
:101E6000F0411847BDE8F08100F0F4BB1EB400F06B
:101E70009CF81EBCFEF796FE0378472B17D14378DB
:101E80004E2B14D18378552B11D1C378432B0ED10F
:101E90000379432B0BD143792B2B08D183792B2B3F
:101EA00005D1C07901288CBF002001207047002097
:101EB000704700002DE9F3411D460378472B0E467D
:101EC0000246C17913D143784E2B10D18378552B1C
:101ED0000DD1C378432B0AD10379462B07D143791F
:101EE0004F2B04D18379522B01D1002931D01046D8
:101EF000FFF7C2FF80F00104E4B20023002001904C
:101F000053BB5CBB01290ABF52F8203CA2F120035D
:101F1000783B012908BF52F8202C1C6818BF5832A2
:101F20000192236820469B689847C8B1019B1B68B3
:101F300001930227336801AAD3F8108021460123B8
:101F40003046C04770B1019B2B60384602B0BDE8F7
:101F5000F08101230C46D1E7034CE2E7034CE0E7B4
:101F60000127E7E70746F0E7A8750008B075000805
:101F700010B5044600F032F802462046A4F12001D4
:101F8000FFF77AFF60B154F8043C0133012B44F8A9
:101F9000043C03D1936844F8083C9160012010BDD3
:101FA0009368002BF9D000F0A3FA10B500F016F8F2
:101FB000826801460AB900F09BFA02F1200420462B
:101FC000FFF75AFF40B1D369013BD36113B9906960
:101FD00088609361204610BD8860FBE70048704729
:101FE0003402002030B500231A4610F8015B05F0DA
:101FF0007F04944023432C0602F10702F5D40B60C2
:1020000030BD30B500231A4610F8014B04F07F05AF
:1020100095402B43250602F10702F5D41F2A06D866
:10202000640642BF4FF0FF3404FA02F213430B6020
:1020300030BD50282DE9F3410646884615461F4617
:1020400008D1D01C20F0030050F8044B3C6002B0D3
:10205000BDE8F08100F00F030C2B2ED8DFE803F071
:1020600025071D25292D2D2D2D182125290001A9F4
:102070002846FFF7B7FF019C002CE7D006F070035D
:10208000102B08BFA8464444330648BF2468DDE748
:1020900001A92846FFF7B5FFEDE7284630F8024BC7
:1020A000EAE7284630F9024BE6E7284650F8044BA9
:1020B000E2E7284650F8084BDEE700F059FB08B588
:1020C0000346FF2B084610D003F07002302A12D0CE
:1020D00007D8202A0BD002D813F0600F05D000F0EB
:1020E00047FB402A0BD0502AF9D1002008BDBDE89B
:1020F000084000F03ABBBDE8084000F033BBBDE843
:102100000840FEF72FBF70B50C4601462046154625
:102110001E46FFF7D4FF334601462A462046BDE857
:102120007040FFF786BF73B50C461546064628B3C8
:10213000FEF718FF034620462B6010F8011BFF290D
:102140001ED002462B1D3046FFF7DDFF10F8013B85
:102150002B75FF2B16D010232B7501A9FFF742FF1B
:10216000019B0344EB6010F8013B6B7501A9FFF77D
:1021700039FF019B03442B6102B070BD0346DAE7CF
:102180006B60E3E70023EDE71FB503AB009300238B
:102190000A461946FEF750F9039805B05DF804FBAE
:1021A0002DE9F04F91B00023059300F00303012BBC
:1021B00006460C4617460ED0022B03D0002B3BD10F
:1021C00001073BD539462046FEF7B6FE90B30920FD
:1021D00011B0BDE8F08F020706D40D6A38460D2114
:1021E000FFF7D2FF85422BD00220002306F008061D
:1021F0000DF1280A0643CDF800A00C2219463846F6
:102200000A94FEF73FF9062E1CD1D4F83080D4E9A9
:102210000A59B8F1000F0CBF4FF0010B4FF0030B40
:1022200016F0080600F00781BBF1010F40F0FF80B7
:1022300000F05EF90820CBE700F09AFA0120D4E71D
:102240000620D2E73846FEF793FE81460028B9D033
:10225000524601463846FFF766FF394605469DF867
:102260003C00FFF72CFF0F210C903846FFF78CFF46
:1022700020F0010808F1FF380E9BAB4240F2BF800E
:102280002A469DF83D1006AB0020FFF73CFF9DF865
:102290003D10024607AB0020FFF735FF08AB0246B2
:1022A0009DF83D100020FFF72EFF09A9FFF79AFEC9
:1022B0000A9B069A13444345054601D90E9DDBE768
:1022C000079A13444345D7D9DDF82080B8F1000FB1
:1022D00001D00B9B9844099D15B10E98013D054412
:1022E000B8F1000F3FF46EAF002D00F0F28016F051
:1022F0000803029334D0472323704E236370552381
:10230000A3704323E370462323714F236371522349
:10231000A3710023E3714FF0000B07A92846FFF7D4
:1023200070FE08A90390FFF76CFE0799002963D09F
:102330003ADD9DF83C00FF2832D000F00703042B63
:102340003FF67AAF01A252F823F000BFA5230008A0
:102350003922000873230008A52300089D230008E4
:10236000E379012B0CBF54F8203C04F1580305938A
:10237000D1E702250D9A09AB05FB11220C99FFF755
:1023800058FE099931B15CB305AB00222046FFF736
:1023900091FD28B3079D4FF0030B34E00825E9E7D2
:1023A0000025E7E70425E5E7C1F17F5101F57F113D
:1023B0000D9B01F57F513F3103EB8105BCB1029AC2
:1023C000AAB9059B0993043D55F8041F0029E1D0E3
:1023D00009AB002229442046FFF76CFD0028F3D00A
:1023E000089D002D71D0039B2B441D4695E753F8A3
:1023F0002130002BF4D1CDE74FF0010BF0E70025A1
:10240000A8464FF0010BF3077FF50AAFBBF1020FAF
:102410003FF4D8AE0D213846059EFFF7B5FEC4E95E
:102420000A59C4E90806C4F830800620D0E6002D19
:1024300022DA00F06FF8BBF1010F02D1204600F064
:1024400028F9002D18DA524649463846FFF76BFE48
:102450009DF83C003946FFF732FE0D9A0C90EB4395
:1024600002EB830353F826200AB10136FAE704226F
:10247000C4E90A60C4E90C23002309AE1A461946D0
:10248000009638460994FDF7FDFF00231946012206
:10249000009638460995FDF7F5FF0F213846FFF7FE
:1024A00073FE00F0010040EA080000230990009646
:1024B0000F2219463846FDF7E5FFBBF1020F02D1A6
:1024C0002046FFF755FD072082E6BBF1000F3FF4E1
:1024D00079AE4FF0020B96E708B5804700F048F957
:1024E000024B1868BFF35B8F704700BF28000020C5
:1024F00008B5FFF7F5FFFFF7EFFF08B58047FFF7D7
:10250000F7FF0000024B1868BFF35B8F704700BFF6
:102510002400002008B5FFF7F5FFFFF7EEFF0000ED
:1025200010B5034B03600446FFF74AFC204610BD7C
:102530003876000810B50446FFF7F2FF20460C215C
:10254000FFF792FC204610BD2DE9F041DDF8188020
:10255000904506460F4615461C460BD0B0680368EA
:10256000CDF818801E6A2A4623463946B446BDE88F
:10257000F0416047194600F057F80028EED00620D9
:10258000BDE8F0812DE9F14F0D461946DDE90A4B12
:10259000DDE90CA681461746984600F045F890B153
:1025A000002D3460377109DB2C44A2450CBF062492
:1025B0000124B471002001B0BDE8F08F0235F9D1DB
:1025C0000123B371F6E7544506D15946484600F059
:1025D0002BF808B17771EDE7D9F808000368CDE969
:1025E0000CA6CDE90A4BDC693A4643462946A44687
:1025F00001B0BDE8F04F60472DE9F04107460C46B9
:1026000015461E46FFF70FFC48B9B86803689F6976
:102610002A4633462146BC46BDE8F0416047BDE846
:10262000F081704700207047814208B50ED04068A5
:1026300003782A2B0CD049680B782A2B08BF01316C
:10264000FEF7A0FCB0FA80F0400908BD0120FCE7CD
:102650000020FAE700F09CB80378472B17D14378A5
:102660004E2B14D18378552B11D1C378432B0ED127
:102670000379432B0BD143792B2B08D183792B2B57
:1026800005D1C07901288CBF0020012070470020AF
:10269000704710B5044648B100F03BF82046FFF7FC
:1026A000DBFF18B154F8140CFFF716FFFFF720FFFB
:1026B00038B50246FFF7D0FF044640B152F8184C37
:1026C0000025104600F025F81DB1FFF723FF012576
:1026D000F7E72046FFF711FF0378472B17D1437820
:1026E0004E2B14D18378552B11D1C378432B0ED1A7
:1026F0000379432B0BD143792B2B08D183792B2BD7
:1027000005D1C07901288CBF00200120704700202E
:10271000704738B50446FFF761FC0568024620465D
:10272000A4F12001FFF7D8FF28B90DB1FFF7E0FEB3
:102730001160284638BD54F80C3C002BB4BFC3F1DF
:102740000103013344F80C3C53688D4203F1FF331D
:10275000536020461CBF44F8105C1160656AFDF7A9
:1027600063FEE6E708B500F003F808B5FFF7FAFFE7
:1027700008B5062000F0ACFF012004F087FE000041
:10278000024B0146186800F08BB800BF2C000020F7
:10279000024B0146186800F019B800BF2C00002059
:1027A0000A44914200F1FF3300D1704710B511F88F
:1027B000014B03F8014F9142F9D110BD0244034689
:1027C000934200D1704703F8011BF9E738B505467D
:1027D000002941D051F8043C0C1F002BB8BFE4186D
:1027E00003F03AF81D4A136833B963601460284651
:1027F000BDE8384003F036B8A34208D92068211854
:102800008B4201BF19685B6809182160EDE71A4621
:102810005B680BB1A342FAD911685018A0420BD1E2
:1028200020680144501883421160E0D118685B6849
:10283000536001441160DAE702D90C232B60D6E71C
:10284000206821188B4204BF19685B68636004BF6D
:10285000091821605460CAE738BD00BF400200205B
:1028600070B50E4E0C463168054611B900F0F4FE05
:1028700030602146284600F0EFFE431C0AD0C41CFD
:1028800024F00304A04207D0211A284600F0E4FEF9
:10289000013001D14FF0FF34204670BD44020020CA
:1028A0002DE9F041CD1C25F0030508350C2D38BF6E
:1028B0000C25002D074601DBA94205D90C233B60FE
:1028C00000263046BDE8F0812E4E02F0C5FF336889
:1028D0001C4634BB29463846FFF7C2FF431C04465A
:1028E0004DD134682646002E40D123683146384603
:1028F00004EB030800F0B0FE80453AD121680335AF
:102900006D1A25F0030508350C2D38BF0C25294616
:102910003846FFF7A5FF01302BD023682B442360F6
:102920000EE02268521B1ED40B2A16D96119A3424D
:10293000256018BF5960636808BF316062514B6001
:10294000384604F10B0602F08DFF26F00706231D22
:10295000F21AB6D09B1BA350B3E76268A3420CBF28
:1029600032605A60ECE723466468B2E73446766822
:10297000B9E70C233B60384602F074FFA1E72560FD
:10298000DEE700BF400200202DE9F04788B0002BB1
:102990001F461446B8BF03F10043129A109DDDF89C
:1029A0004CA0B6BF1F4600232D231370149B23F0A9
:1029B0002008B8F1460F05D0B8F1450F00D1013518
:1029C000022300E0032307AA049206AACDE902A28B
:1029D000CDE9003522463B4601F0CEFDB8F1470F68
:1029E000064602D1119BDB0722D5B8F1460F06EB54
:1029F000050910D13378302B0AD10022002320465C
:102A00003946FEF749FF18B9C5F10105CAF800506B
:102A1000DAF8003099440022002320463946FEF7B8
:102A20003BFF08B1CDF81C903022079B4B4507D3E4
:102A3000079B159A9B1B3046136008B0BDE8F087D2
:102A4000591C07911A70F0E7F7B503460029B8BF83
:102A5000494203F8022BB4BF2D222B2209294270D0
:102A60002ADD0DF10704A4460A27A6460A4691FB73
:102A7000F7F607FB16153035632A04F1FF340EF81C
:102A8000015C3146F1DC3031AEF1020504F8011C85
:102A9000441C294661450AD30DF10902A2EB0E023E
:102AA000654588BF00221344181A03B0F0BD11F821
:102AB000012B04F8012FEDE7302330318370C17012
:102AC000031DF1E72DE9F04F91B00C46DDF8688069
:102AD00016461F46054602F0A9FE036809931846EC
:102AE000FEF75AFA00230E93D8F800300A90073305
:102AF00023F0070303F1080294F81890D4F800B00B
:102B0000C8F80020D3E90023C4E91223D4E9128ACB
:102B10002AF000430B930B999C4B4FF0FF32404639
:102B2000FEF7ECFE70BB994B0B994FF0FF3240461D
:102B3000FEF7C6FE30BB0022002340465146FEF79A
:102B4000B5FE10B12D2384F84330914B9148B9F173
:102B5000470F94BF98468046032323612BF004035C
:102B600023604FF0000A009733460FAA21462846FB
:102B700000F0D2F9013040F08F804FF0FF3011B0FB
:102B8000BDE8F08F4246534640465146FEF7B6FE3A
:102B900040B1BAF1000FBCBF2D2384F843307E480A
:102BA0007E4BD4E763685A1C09F0DF0142D106234B
:102BB0006360002206920EAACDE904920DAA4BF49E
:102BC000806303920DF13302CDE901322360636823
:102BD00000934246534628460B91FFF7D5FE0B99CA
:102BE000472980460D9908D1C81C02DB63689942C9
:102BF00040DDA9F102095FFA89F9B9F1650F1FD823
:102C000001394A4604F150000D91FFF71DFF0E9A5D
:102C10001318012A8246236102DC2268D20701D5FB
:102C2000013323619DF83330002B9CD02D2384F891
:102C3000433098E74729BCD1002BBAD10123B7E72D
:102C4000B9F1660F18D1002963680BDD216113B952
:102C50002268D00702D501330B442361A1654FF0F0
:102C6000000ADFE713B92268D20701D50233F4E77F
:102C70000123F2E74FF067090E9B994205DB2368B9
:102C80002161D807EAD54B1CE7E70029D4BFC1F181
:102C9000020201221344E0E723685A0507D423699E
:102CA000424631462846B84701302BD165E7B9F195
:102CB000650F40F2DC80D4E9120100220023FEF708
:102CC000EBFD002833D0364A012331462846B84769
:102CD00001303FF452AFDDE90D239A4202DB236855
:102CE000D8070FD5DDE9092331462846B84701301A
:102CF0003FF443AF4FF0000804F11A090E9B013B6B
:102D0000434509DC23689B0700F10181E0680F9BC4
:102D10009842B8BF184632E701234A463146284652
:102D2000B84701303FF429AF08F10108E6E70D9BF1
:102D3000002B37DC1A4A012331462846B8470130B8
:102D40003FF41BAFDDE90D23134302D12368D907FC
:102D5000D8D5DDE9092331462846B84701303FF48C
:102D60000CAF4FF0000904F11A0A0D9B5B424B4572
:102D700001DC0E9B94E70123524631462846B847B2
:102D800001303FF4FAAE09F10109EEE7FFFFEF7FF2
:102D9000787600087C760008847600088076000843
:102DA000887600080E9AA36D9A42A8BF1A46002A98
:102DB000914637DC4FF0000B29EAE97904F11A0259
:102DC000D4F858A0AAEB09035B4533DCDDE90D23F9
:102DD0009A423BDB2368DA0738D40E9B0D99A3EBAC
:102DE0000A02A3EB01099145A8BF9146B9F1000F72
:102DF00034DC4FF0000829EAE97904F11A0ADDE928
:102E00000D239B1AA3EB090343457FF77BAF0123F7
:102E1000524631462846B84701303FF4AEAE08F17D
:102E20000108ECE71346314642462846B8470130D0
:102E3000C0D1A2E60123314628460B92B8470130A3
:102E40003FF49BAE0B9A0BF1010BB9E7DDE90923C7
:102E500031462846B8470130BFD18EE64B4608EBD5
:102E60000A0231462846B8470130C2D185E60E9A9B
:102E7000012A01DCDB0737D50123424631462846CB
:102E8000B84701303FF479AEDDE9092331462846E1
:102E9000B84701303FF471AED4E91201002200239B
:102EA000FEF7FAFCD8B90E9B08F10102013B31464E
:102EB0002846B84701300ED15FE601234A46314625
:102EC0002846B84701303FF458AE08F101080E9B80
:102ED000013B4345F1DC534604F15002E1E64FF07B
:102EE000000804F11A09F2E701234246DFE7012353
:102EF0004A4631462846B84701303FF43EAE08F115
:102F00000108E3680F995B1A4345F0DCFEE64FF0D9
:102F1000000804F11909F4E72DE9F047164699462F
:102F20008A680B69DDF820809342B8BF134633608E
:102F300091F8432007460C460AB1013333602368F9
:102F4000990642BF336802333360256815F00605E1
:102F500006D104F1190AE36832689B1AAB4226DCF9
:102F600094F84320131E226818BF012392062BD425
:102F700004F1430249463846C04701301ED0236859
:102F8000E568326803F00603042B08BFAD1AA36896
:102F900022690CBF25EAE57500259342C4BF9B1A40
:102FA000ED1800261A34B5421AD1002008E001239A
:102FB000524649463846C047013003D14FF0FF30F2
:102FC000BDE8F0870135C6E7E1185A1C302081F8CA
:102FD0004300224494F8451082F843100233C7E7B7
:102FE0000123224649463846C0470130E6D0013623
:102FF000D9E700002DE9FF470F7E0C9D782F914601
:1030000080460C469A4601F1430207D8622F0AD83F
:10301000002F00F0D880582F00F0A38004F1420563
:1030200084F842703AE0A7F16303152BF6D801A1AA
:1030300051F823F08D300008A13000081D30000841
:103040001D3000081D3000081D300008A1300008A8
:103050001D3000081D3000081D3000081D3000081C
:10306000AD310008D13000088F3100081D30000854
:103070001D300008CF3100081D300008D130000895
:103080001D3000081D300008973100082B681A1DFC
:103090001B682A6004F1420584F842300123A3E052
:1030A00020682968060601F104030AD50E682B6022
:1030B000002E03DA2D23764284F843305E480A233B
:1030C00019E00E682B6010F0400F18BF36B2EFE722
:1030D0002B682068191D2960010601D51E6802E0D1
:1030E0004606FBD51E8854486F2F0CBF08230A23C1
:1030F000002184F843106568A560002DA2BF2168F7
:1031000021F0040121600EB9002D4DD01546B6FB0B
:10311000F3F103FB1167C75D05F8017D3746BB423C
:103120000E46F4D9082B0BD12368DE0708D5236996
:1031300061689942DEBF302305F8013C05F1FF3597
:10314000521B2261CDF800A04B4603AA21464046FF
:10315000FFF7E2FE01304CD14FF0FF3004B0BDE884
:10316000F087354881F845702968236851F8046B69
:1031700029601D0614D5DF0744BF43F020032360F8
:103180001EB9236823F0200323601023B0E72368CF
:1031900043F0200323607823284884F84530E3E790
:1031A000590648BFB6B2E6E71546BBE72B68266866
:1031B0006169181D286035061B6801D5196002E099
:1031C0007006FBD51980002323611546BAE72B68EA
:1031D0001A1D2A601D68626800212846FDF7E8FE76
:1031E00008B1401B606063682361002384F84330AA
:1031F000A8E723692A4649464046D0470130ABD06C
:1032000023689B0713D4E068039B9842B8BF184615
:10321000A4E70123324649464046D04701309BD0BF
:103220000135E36803995B1AAB42F2DCEBE700255A
:1032300004F11906F5E700BF8A7600089B760008BE
:103240002DE9F04F87B0174603938B685A1EB2F5ED
:10325000AE7F83BF6FF4AE755B190293002386BF08
:1032600040F25D138B6002930B688B46002543F49C
:10327000F0634BF81C3BCDE9045580460C465E4696
:10328000AA46A9460195A26852B13B681B784E2B0D
:1032900064D8402B3CD8A3F12B01C8B20E283AD9F0
:1032A000B9F1000F03D0236823F4807323600AF17F
:1032B000FF3ABAF1010F00F213815E4500F2058179
:1032C0000125284607B0BDE8F08FA3F161020D2A61
:1032D000E6D801A151F822F017340008A132000805
:1032E000A1320008A1320008773400084F340008EA
:1032F000A1320008A132000825340008A1320008DC
:10330000A1320008A1320008A1320008DD33000814
:10331000A3F14102DBE70E29C2D801A050F821F049
:10332000CF330008A1320008CF330008633400080F
:10333000A13200087D330008B9330008B933000812
:10334000B9330008B9330008B9330008B9330008AD
:10335000B9330008B9330008B93300086E2B09D817
:10336000602BB2D8542B77D0592B99D1072D97D1F8
:10337000082529E0742B6FD0792BF6E72168C80562
:103380001AD5029B21F08001216009F101091BB1CE
:10339000013B01320293A260A368013BA360236951
:1033A000013323617B68013B002B7B6040F3848009
:1033B0003B6801333B6066E71AEB050F7FF470AFA3
:1033C000226822F4C072226006F8013BE4E722681A
:1033D00010067FF565AF22F08002F4E7BAF1000F26
:1033E0000ED1B9F1000F0ED1226802F4E061B1F5FF
:1033F000E06F08D122F4F06222604FF0010AE3E7A7
:10340000BAF1020F55D0012D02D0042D7FF448AF40
:103410000135EDB2D8E7BAF1010F7FF441AF4FF0BB
:10342000020AD1E77DB9B9F1000F7FF43CAF226801
:1034300002F4E061B1F5E06F7FF439AF22F4F0629D
:1034400022600125C0E7032DE2D0052DDEE7022D25
:103450007FF426AF0325B7E7062D7FF421AF0725BC
:10346000B2E7226891057FF51BAF22F4207222603B
:10347000CDF80490A8E7226802F4A061B1F5806F4E
:1034800006D050057FF50CAFB9F1000F3FF40FAF38
:10349000910558BF019922F4F06258BFA9EB0101D0
:1034A00042F4C07258BFCDE9041622604FF0000903
:1034B0008AE74FF0030A87E7D4F88031394640465F
:1034C000984700283FF4DFAEEAE6D4F87C3116F8DE
:1034D000011D3A46404698472369013B2361ECE6CB
:1034E0006B1E062B25D8022D36D85E457FF6E8AE3A
:1034F000D4F87C3116F8011D3A46404698472369B6
:10350000013B2361F1E70298D4F87C3110F8011DEA
:1035100002903A46404698472369013B23610AF1ED
:10352000FF3A5FFA8AFABAF1020FECD1033DEDB22D
:10353000761B2368DA052FD55B0510D55E457FF62F
:10354000BFAED4F87C3116F8011D3A464046984784
:103550002369013B2361F1E7AA460296DFE716F8EB
:10356000011C2369652903F1FF3306F1FF3523614F
:103570000CD045290AD0D4F87C313A4640469847C9
:10358000236916F8021C013BB51E2361D4F87C3177
:103590003A46404698472E46256815F0100555D105
:1035A0003570236803F4C063B3F5806F1BD1019BB2
:1035B0004B45A3EB090223D100225946404600F0B7
:1035C000CFFE2268039B12F0020F1B6806460F46CF
:1035D00021D01A1D03990A601B68C3E90067E368DC
:1035E0000133E3606DE6049B002BE5D005990A23C7
:1035F0002A460131404600F035FF049B059EC21A61
:1036000004F26F139E4228BF04F5B7761049304686
:1036100000F07AF8D0E712F0040F03F10402D9D1D8
:10362000DDF80CC0CCF80020D3F8008002460B4631
:10363000FEF764F928B1074800F01EF8C8F800004A
:10364000CDE730463946FEF7B7F9F7E7002538E60B
:10365000AC760008207B000838B5064D00230446F0
:1036600008462B6003F0AAFD431C02D12B6803B16E
:10367000236038BD48020020004870470000C07F2A
:103680001F2938B504460D4604D9162303604FF0B0
:10369000FF3038BD426C12B152F821304BB9204690
:1036A00000F030F82A4601462046BDE8384000F0D8
:1036B00017B8012B0AD0591C03D11623036001202F
:1036C000E7E7002442F82540284698470020E0E735
:1036D000024B01461868FFF7D3BF00BF2C00002043
:1036E00038B5074D00230446084611462B6003F009
:1036F000EBFE431C02D12B6803B1236038BD00BF31
:103700004802002003F058BD0EB400B59CB01DABBC
:10371000029006906FF00041094807910491094911
:1037200053F8042B05910068019302A902F0C4FD2F
:10373000029B00221A701CB05DF804EB03B07047C6
:103740002C0000200802FFFF2DE9F0410F469046B3
:1037500002F0FAFB04460D46B8F1000F11D0C7F392
:103760000A53C3F16B03002B0BDD1B0503F17F55DF
:10377000002405F5401522462B46FDF725FE04469C
:103780000D4620462946BDE8F081000000000000FB
:103790002DE9F04F9FB09B4600231A939E4B159244
:1037A0001F68824638460E46FDF7F6FB4FF00008CC
:1037B00004464FF000091996199B1A782B2A4CD011
:1037C0003AD80D2A33D8082A33D8002A3DD000230E
:1037D0000A93199D2B78302B40F0AA806B7803F068
:1037E000DF03582B66D10A9B01931AAB00938B4AD7
:1037F000CDF808B01BAB19A9504601F019FD10F027
:103800000706044605D0062E29D101350023199557
:103810000A93159B002B40F08A850A9BD3B1424640
:1038200009F10043104619461FB0BDE8F08F202A69
:10383000CDD101331993BFE72D2AC8D101220A92B5
:103840005A1C19925B78002BC3D1159B1996002B3B
:1038500040F06B8542464B46E4E70022EFE71A9AB8
:103860003AB135211CA802F073FC1A99504602F0B7
:103870003FF8013E042E06D8DFE806F00A031417CD
:103880000A00DDE91C892107C3D549F00049C0E7DA
:10389000DDE91C831B9A23F4801302F2334243EACE
:1038A0000259F0E7DFF87891EDE76FF000494FF04B
:1038B000FF38E8E7199B5A1C19925B78302BF9D036
:1038C000002BA6D001230793199B08930023CDE971
:1038D00005339B460A2219980578A5F13003D9B221
:1038E000092927D92246394602F0ECFD002833D0B9
:1038F00000202A465C4604900346652A01D0452AEA
:1039000014D11CB9079A02439FD00024199E721C3F
:10391000199272782B2A79D02D2A00F08380002703
:10392000A2F13001092940F28380199600259FE019
:103930000023C8E7BBF1080FD5BF0699059902FB24
:10394000013302FB013300F10100D4BF069305935C
:103950000BF1010B1990BEE7199B1A1919921A5D08
:10396000BBF1000F36D004905C46A2F13003092B66
:1039700012D90123C1E7199B5A1C19925A780130B8
:10398000302AF8D0A2F13103082B00F2D584199B1C
:103990000490002008930446303A00F1010313D04C
:1039A000049919440491234605190A21AB4213D105
:1039B0002318082B04F1010404441BDC06990A2394
:1039C00003FB012306930023199A511C1991527885
:1039D0001846CAE75846D3E7082B04DC069F4F4336
:1039E00006970133E2E75F1C102FDEBF059F4F43B0
:1039F0000597F6E7102CDFBF05990A2303FB012387
:103A00000593E0E70023049301237BE70027B21C22
:103A10001992B27884E700BF44790008B4760008B0
:103A20000000F07F0127F2E7199A511C1991527892
:103A3000302AF9D0A2F1310108293FF677AFA2F17F
:103A4000300C199A09924FF00A0E199A511C1991CB
:103A50005278A2F13005092D35D9099D491B082955
:103A600044F61F6502DC6545A8BF654607B16D4297
:103A7000002C4CD1079901437FF4CBAE002B7FF48F
:103A8000E4AE692A26D023DC492A23D04E2A7FF4CB
:103A9000DCAE9D4919A801F019FE00283FF4D5AE0F
:103AA000199B1B78282B2CD198491CAA19A801F026
:103AB00021FE052825D11D9BDDF8708043F0FF49CC
:103AC00049F4E009A5E60EFB0C2CACF1300CBCE788
:103AD0006E2ADCE78E4919A801F0F8FD00283FF4B2
:103AE000B4AE199B8B49013B19A8199301F0EEFD67
:103AF00010B9199B01331993DFF81C924FF000089D
:103B000087E6864802F0D8FC8046894681E6049B19
:103B10000698EB1ABBF1000F08BFA346102C0793C1
:103B20002646A8BF1026FDF7D5FB092C80468946FE
:103B300013DD7B4B03EBC60353E91223FDF744FC73
:103B4000804605988946FDF7C5FB02460B46404670
:103B50004946FDF783FA804689460F2C36DC079BE1
:103B6000002B3FF456AE22DD162B09DC6C4901EB2D
:103B7000C301D1E9000142464B46FDF725FCC3E7EE
:103B8000079AC4F12503934220DB654DC4F10F046D
:103B900005EBC40142464B46D1E90001FDF714FC98
:103BA000079B1C1B05EBC405D5E90023E5E7079B34
:103BB00016330BDB049B5D1B594B03EBC505D5E9A5
:103BC000002340464946FDF729FD9DE7079BA61BBC
:103BD0001E44002E74DD16F00F030AD0504901EB8D
:103BE000C30142464B46D1E90001FDF7EDFB80469B
:103BF000894636F00F0652D0B6F59A7F27DD4FF092
:103C0000000BCDF810B0CDF820B0CDF818B02223BD
:103C1000DFF80491CAF800304FF00008089B002B31
:103C20003FF4F7AD1A99504601F062FE06995046EE
:103C300001F05EFE0499504601F05AFE0899504684
:103C400001F056FE5946504601F052FEE1E5354B73
:103C5000059300233611404649461F46012E21DCBC
:103C60000BB1804689462F4BA9F1547903EBC70766
:103C700042464B46D7E90001FDF7A6FB264B0A4614
:103C80000B4029498B428046B9D8A1F580118B425F
:103C900086BFDFF898904FF0FF3802F15479002387
:103CA00005937FE0F20705D5059BD3E90023FDF7D7
:103CB0008BFB0123059A0832013776100592CDE778
:103CC000EDD0764216F00F020AD0154B03EBC2037B
:103CD00040464946D3E90023FDF7A0FC80468946CB
:103CE0003611DCD01F2E23DD4FF0000BCDF810B0C5
:103CF000CDF820B0CDF818B022234FF000084FF0D7
:103D00000009CAF8003089E785760008C8760008FF
:103D10007D7600080C7800080000F07F207B00080A
:103D2000007A0008D87900080000A07CFFFFEF7F30
:103D300016F0100318BF6A23B14F05934046494659
:103D40000023F20704D5D7E90023FDF73DFB01234B
:103D5000761007F10807F4D10BB180468946059B20
:103D6000C3B1C9F30A52C2F16B03002B494611DDFE
:103D70001F2B40F32481342BDEBFC2F14B024FF0E6
:103D8000FF3303FA02F24FF00008CCBF4FF05C792A
:103D900002EA01090022002340464946FDF77CFD66
:103DA0000028A1D1069B0093089923465A46504605
:103DB00001F006FE089000283FF421AF049B5D1B34
:103DC000079B002BB4BF2B4600230E93079B4FF09D
:103DD000000B23EAE3731493CDF810B0089B504610
:103DE000596801F045FD069000283FF410AF089B8C
:103DF0001A69023203F10C0192000C30FEF7D0FC7C
:103E00001CAB01931BAB009342464B465046CDE999
:103E10000C8902F013F91A9000283FF4F8AE012142
:103E2000504601F065FE0490034600283FF4EFAED3
:103E30001B9D1C9A002DABBF0E9B149B149C0E9EC9
:103E4000ACBFEE185C1B059BED1A15446D4B013D94
:103E50009D42C2F1360280F2C4805B1B1F2BA2EB95
:103E600003024FF0010700F3B18007FA03F30F9349
:103E70000025B718059BBE4214441C443346A8BF16
:103E80003B46A342A8BF2346002BC2BFFF1AE41A39
:103E9000F61A0E9B002B17DD04991A46504601F0C6
:103EA000E5FE049000283FF4B2AE01461A9A50464F
:103EB00001F034FE099000283FF4A9AE1A9950464B
:103EC00001F016FD099B1A93002F00F38E80079BCB
:103ED000002B08DD149A0699504601F0C7FE0690A3
:103EE00000283FF494AE002C08DD06992246504687
:103EF00001F016FF069000283FF489AE002E08DD81
:103F000004993246504601F00BFF049000283FF41C
:103F10007EAE069A1A99504601F08EFF834600281D
:103F20003FF475AE0024C3680499C4600B9301F09C
:103F300067FFA0426CDA0B9B53EA080340F09280C3
:103F4000C9F31303002B40F08D8029F000431B0DB3
:103F50001B05B3F1D66F40F28580DBF814301BB936
:103F6000DBF81030012B7DDD59460122504601F06F
:103F7000D7FE0499834601F043FF002872DD0599BE
:103F8000214A4B46002900F08D8002EA0901B1F177
:103F9000D66F00F38780B1F15C7F7FF7ADAE1B4B2E
:103FA000404649460022FDF70FFA0B46034308BF7F
:103FB00022238046894608BFCAF8003032E64FF017
:103FC000FF3202FA03F303EA0808E3E6C5F17F458E
:103FD00005F57F0505F57B45E23507FA05F50F97F1
:103FE00047E7012300250F9343E71A993A465046C5
:103FF00001F096FE1A9000287FF469AF07E600BF33
:10400000E076000802FCFFFF0000F07F000050395E
:10401000CDF8249065D10B9AC9F313035AB39A4A89
:1040200093422BD1059B414603B3984B4A4613401C
:10403000B3F1D46F4FF0FF321BD81B0DC3F16B03EC
:1040400002FA03F3994219D1914B099A9A4202D18B
:1040500001313FF4DCAD8D4B099A1A4002F580190D
:104060004FF00008059B002B99D1DBE54FF0FF33A3
:10407000E8E71346E6E753EA080380D0E5B1099B79
:104080001D42EFD00B9B059A40464946C3B1FFF74E
:104090005BFB02460B46DDE90C01FCF7DFFF8046C7
:1040A0008946DFE71340A3F580136FEA13596FEADF
:1040B00009594FF0FF38D5E70F9B13EA080FE0E7E7
:1040C000FFF742FB02460B46DDE90C01FCF7C4FF9B
:1040D0000022002380468946FDF7DEFB0028C1D080
:1040E0000AE60499584602F005F800224FF0804392
:1040F00006460F46FDF7E4FB002870D00B9B002B13
:1041000042D0644F0026634D099B23F000431B0DF2
:104110001B050F930F9A604B9A4240F0C580099B94
:10412000A3F154794046494601F00EFF02460B4682
:1041300030463946FDF748F942464B46FCF78EFFBC
:104140000B465249554A1940914280465DD90D9A15
:104150004F4B9A4203D10C9B01333FF458ADDFF82B
:1041600030914FF0FF381A99504601F0C1FB069983
:10417000504601F0BDFB0499504601F0B9FB594689
:10418000504601F0B5FB29E6B8F1000F19D1099BA3
:10419000C3F31303E3B93F4B002230463946FDF722
:1041A00085FBC8B93E4B002230463946FDF70CF975
:1041B00004460D4605F1004316941793DDE9166792
:1041C000A2E7B8F1010F03D1099B002B3FF494AD96
:1041D000344F0026002496E70B9C314DEAE7304B24
:1041E000002230463946FDF7EFF80B9B04460D469A
:1041F00033B901F1004310901193DDE9106783E7B3
:1042000002460B46CDE91023F7E703F15479059BED
:10421000002BA8D129F000430F9A1B0D1B059A42D1
:10422000A1D120462946FDF717FCFDF79FF802466D
:104230000B4620462946FCF70FFF0B9AC9F31303E0
:1042400043EA0803134304460D4668D00AA3D3E9A2
:104250000023FDF72BFB00287FF4E4AC08A3D3E98F
:10426000002320462946FDF73FFB00283FF47BAFA3
:10427000D8E400BFAFF300809535A094FFFFDF3F87
:1042800035E5AF350000E03FFFFF0F000000F07F95
:10429000FFFFEF7F0000F03F0000E07FFFFF9F7C0B
:1042A0000000E03F0000F0BF059B13B30F9BB3F18C
:1042B000D46F1ED826A3D3E9002320462946FDF754
:1042C000FFFA90B129462046FDF756FB012838BF7A
:1042D0000120FCF7FFFF0B9B04460D46D3B901F10B
:1042E000004312901393DDE912670F9A07F1D6632A
:1042F0009F1ADDE90C0101F027FE02460B4630460D
:104300003946FDF761F8DDE90C23FCF7A7FE80468E
:1043100089467CE702460B46CDE91223E3E70EA36C
:10432000D3E90023FDF7C2FA9FE700230A93159A09
:10433000199B1360FFF771BA652A3FF463AB452AF6
:104340003FF460AB0123FFF795BB00BFAFF30080E4
:104350000000C0FFFFFFDF419535A094FFFFCF3F76
:10436000014BFFF715BA00BF94000020012B2DE987
:10437000F047804601D0242B06D900F0EBFE16232F
:1043800003600020BDE8F087354F0D46284615F83C
:10439000014BE65D16F00806F8D12D2C2FD12C78B4
:1043A0000126851C002B57D0102B09D1302C07D1AA
:1043B000287800F0DF00582849D16C7810230235A6
:1043C00006F1004E0EF1FF3E0027BEFBF3F9384622
:1043D00003FB19EAA4F1300CBCF1090F14D86446B0
:1043E000A34222DD002F1DDB81451BD301D1A24555
:1043F00018DB00FB0340012715F8014BEAE72B2CE3
:1044000004BF2C78851CCDE7A4F1410CBCF1190F39
:1044100001D8373CE4E7A4F1610CBCF1190F04D8D2
:10442000573CDDE74FF0FF37E6E7002F07DA22239E
:10443000C8F800307046002AA4D0691E05E006B115
:104440004042002A9ED0002FF7D111609AE7302415
:10445000002BB5D10823B3E7302CA9D00A23AFE74E
:1044600009770008FFF782BF2DE9F74F03690C6950
:10447000A34207467DDB013C01F1140800F114055D
:1044800005EB8403019358F8243055F824200133B8
:104490009A424FEA840B08EB8409B2FBF3F62ED361
:1044A0004FF0000E4046AC46F24650F8042B93B253
:1044B00006FB03E34FEA134E120C9BB206FB02E22B
:1044C000AAEB0303DCF800A04FEA124E92B213FAF3
:1044D0008AF3C2EB1A4202EB23429BB243EA024345
:1044E00081454CF8043B4FEA224ADED255F80B30A6
:1044F0002BB9019B043B9D421A462ED33C613846A2
:1045000001F07EFC002824DB013628464FF0000C29
:1045100058F8042BD0F800E093B2ACEB0303120C74
:1045200013FA8EF3C2EB1E4202EB23429BB243EA24
:104530000243C14540F8043B4FEA224CE8D255F80B
:10454000242005EB840322B9043B9D421A460AD37A
:104550003C61304603B0BDE8F08F1268043B002A8E
:10456000CCD1013CC7E71268043B002AF0D1013CE2
:10457000EBE70020EEE700002DE9F04F446A99B028
:1045800016461F46CDE90467DDF89480054674B9E8
:104590001020FEF7F5F80246686220B9A84BEA2120
:1045A000A84801F0B1FFC0E901440460C4606B6A2F
:1045B000196851B15A684A60012393408B602846BC
:1045C00001F096F96B6A00221A603B1EB9BF23F016
:1045D000004305930023C8F80030DDF814909A4B8F
:1045E000BCBF0122C8F8002033EA090319D1249A7C
:1045F00042F20F731360C9F31303334300F0808555
:10460000269B53B9914B22E0914B03930833269A92
:104610001360039819B0BDE8F08F8C4B03930333FC
:10462000F5E7DDE90434CDE90C34DDE90C010022C5
:104630000023FDF731F9804658B1249A0123136015
:10464000269B002B00F0598582481860431E039377
:10465000DFE716AB019317AB00932846DDE90C2387
:1046600001F0ECFCC9F30A548346002C7ED00D9B6C
:10467000CDF84C80C3F31303DDE90C0143F07F5107
:1046800041F44011A4F2FF34734B0022FCF7E4FC28
:1046900065A3D3E90023FCF797FE65A3D3E90023C4
:1046A000FCF7DCFC064620460F46FCF723FE62A31F
:1046B000D3E90023FCF788FE02460B463046394614
:1046C000FCF7CCFC06460F46FDF72EF90022824689
:1046D000002330463946FDF7E9F848B15046FCF76B
:1046E00009FE32463B46FDF7D7F808B90AF1FF3A12
:1046F000BAF1160F57D8594B03EBCA03D3E900237D
:10470000DDE90C01FDF7D2F800284ED00AF1FF3A9E
:1047100000230F93169B1C1B631E099345BFC4F116
:1047200001030693002300234CBF09930693BAF1BB
:10473000000F3CDB099BCDF838A0534409930023BC
:104740000A93229B092B00F28D80052BC4BF043BEA
:104750002293229BA3F10203CCBF00240124032B4C
:1047600000F28C80DFE803F02D4F4D5BDDE916434E
:104770001C4404F23243202BC3BFC3F1400304F2B4
:10478000124009FA03F3C3F12003C6BF26FA00F072
:10479000184306FA03F0FCF79DFD0123A1F1F8711F
:1047A000013C139370E70123B3E70F90B2E7069B38
:1047B000A3EB0A030693CAF100030A9300230E93A6
:1047C000BFE700230B93239B002B5ADC4FF001091A
:1047D000CDF820904B46CDF88C90686A002242605C
:1047E000042202F114069E42416850D9284601F085
:1047F0003FF8039000284ED1194B02464FF4D57173
:10480000CEE60123DEE700230B93239B0AEB03098B
:1048100009F10103012B0893B8BF0123DDE7012350
:10482000F2E700BFAFF3008061436F63A787D23F19
:10483000B3C8608B288AC63FFB799F501344D33F8F
:10484000167800082D7800080000F07F1278000824
:1048500009780008897600080000F83F007A00080F
:10486000AB7800080124002322930B944FF0FF390A
:104870000022CDF8209012232392AEE701230B9360
:10488000F4E7DDF88C90CDF820904B46A5E7013198
:1048900041605200A5E76B6A039A1A60089B0E2BD1
:1048A00000F2A880002C00F0A580BAF1000F34DDE2
:1048B0009A4A0AF00F0302EBC303D3E900341AF457
:1048C000807FCDE910344FEA2A1416D0944BDDE9ED
:1048D0000C01D3E90823FCF7A1FECDE9040104F0A3
:1048E0000F0403278E4E54B9DDE91023DDE90401DE
:1048F000FCF794FECDE9040129E00227F2E7E10785
:1049000008D5DDE91001D6E90023FCF75DFDCDE90E
:104910001001013764100836E5E700F0A580CAF100
:1049200000047E4B7E4E04F00F0203EBC203D3E97A
:104930000023DDE90C01FCF747FDCDE9040124115A
:1049400000230227002C40F08480002BD2D10F9B43
:10495000002B00F08B80DDE90434CDE91034DDE973
:104960001001704B0022FCF7A1FF00287ED0089BAD
:10497000002B7BD0B9F1000F38DDDDE910016A4B67
:104980000022FCF721FDCDE904010AF1FF380137CF
:104990004C463846FCF7AEFCDDE90423FCF714FD79
:1049A000624B0022FCF75AFBA1F15076CDE91001D1
:1049B0001196002C5DD1DDE904015D4B0022FCF76E
:1049C0004BFB02460B46CDE90423109A3346FCF715
:1049D0008BFF002840F09C82DDE90401109A06F16B
:1049E0000043FCF763FF002840F09082DDE90C34BF
:1049F000CDE90434179B002BC0F25281BAF10E0F9F
:104A000000F34E81454B03EBCA03D3E90034CDE9F3
:104A10000634239B002B80F2DB80089B002B00F3E5
:104A2000D78040F07282424B0022DDE90601FCF79C
:104A3000CBFCDDE90423FCF74DFF089C264600284B
:104A400040F04882039F312307F8013B0AF1010A35
:104A500044E2E20705D5D6E90023FCF7B5FC0137AF
:104A60000123641008366DE7022770E7089CD046E2
:104A70008FE70399294B214412910B9903EBC4034F
:104A8000DDE9106753E90223002955D029490020A8
:104A9000FCF7C4FD3B463246FCF7DEFACDE91001D7
:104AA000039FDDE90401FCF73FFF0446FCF722FC0D
:104AB00002460B46DDE90401FCF7CEFA303402462B
:104AC0000B46CDE9042307F8014BDDE91023FCF781
:104AD000EDFE002874D1DDE9042312490020FCF723
:104AE000BBFADDE91023FCF7E1FE002840F0B780B7
:104AF000129B9F423FF47AAFDDE910010A4B00227E
:104B0000FCF762FC084BCDE910010022DDE904014D
:104B1000FCF75AFCCDE90401C3E700BF007A0008A6
:104B2000D87900080000F03F0000244000001C403D
:104B3000000014400000E03F30463946FCF744FCDA
:104B4000CDE91001129B039C1493DDE90401FCF7ED
:104B5000EBFE1590FCF7CEFB02460B46DDE90401A7
:104B6000FCF77AFA159B303304F8013B129B9C4208
:104B700006460F464FF0000224D1A44BDDE9100198
:104B8000FCF76CFA02460B4630463946FCF7ACFEA1
:104B9000002863D1DDE910239C490020FCF75CFA72
:104BA00002460B4630463946FCF780FE00283FF4AB
:104BB0001DAF149F7B1E149317F8013C302BF8D0C7
:104BC000C2463BE0924BFCF7FFFBCDE90401BCE79A
:104BD000DDE90489039FDDE9062340464946FCF7E9
:104BE0001DFDFCF7A1FE0446FCF784FBDDE906236E
:104BF000FCF7EAFB04F1300602460B464046494604
:104C0000FCF72AFA07F8016B039EDDF820C0BE1BF3
:104C1000B44502460B4636D1FCF720FADDE90623FF
:104C200080468946FCF760FE58BBDDE90623404616
:104C30004946FCF731FE08B1E10722D4284659461F
:104C400000F056FE00233B70249B0AF1010018601F
:104C5000269B002B3FF4DDAC1F60DAE427463B4681
:104C60001F4613F8012D392A07D1039A9A42F7D12A
:104C70000399302208F101080A701A7801321A707B
:104C80009EE7D046EBE7624B0022FCF79DFB00223B
:104C9000002380468946FCF7FFFD00289BD0CDE726
:104CA0000B9A002A00F0D080229A012A00F3B280E9
:104CB000139A002A00F0A68003F233430A9C069F51
:104CC000069A1A440692099A01211A442846099222
:104CD00000F00EFF0646002F0CDD099B002B09DDBE
:104CE000BB42069AA8BF3B46D21A0692099AFF1AFF
:104CF000D31A09930A9BF3B10B9B002B00F0A880F9
:104D0000002C10DD31462246284600F0AFFF5A46FF
:104D100001460646284600F001FF594680462846CF
:104D200000F0E6FDC3460A9B1A1B04D059462846EC
:104D300000F09CFF83460121284600F0D9FE0E9B1F
:104D4000002B044640F386801A460146284600F0B0
:104D50008DFF229B012B04467FDD4FF00008236965
:104D600004EB8303186900F075FEC0F12000099B75
:104D7000184410F01F0000F09280C0F12003042BB3
:104D800040F38A80C0F11C00069B03440693099BF4
:104D9000034407440993069B002B05DD59461A4638
:104DA000284600F0BDFF8346099B002B05DD214608
:104DB0001A46284600F0B4FF04460F9B002B70D023
:104DC0002146584601F01CF800286ADA00235946AB
:104DD0000A22284600F0AEFD0B9B0AF1FF3A8346FB
:104DE000002B00F09481314600230A22284600F06F
:104DF000A1FDB9F1000F064600F39380229B022B20
:104E000057DC8EE0169BC3F1360357E70000E03F06
:104E100000002440089B5C1E0A9BA342BFBF0A9B64
:104E20000A94E21A0E9BB6BF9B181C1B0E93089B9C
:104E3000B8BF0024002BB9BF069B089A069F089BA9
:104E4000BCBF9F1A00233BE70A9C069F0B9E42E7CC
:104E50000A9A6BE7229B012B19DC049BBBB9059BCB
:104E6000C3F313039BB9059B23F000431B0D1B05E4
:104E700083B1069B01330693099B013309934FF0DD
:104E800001080E9B002B7FF46AAF01206FE74FF003
:104E90000008F6E79846F4E73FF47DAF18461C306B
:104EA00072E7089B002B36DC229B022B33DDDDF8FA
:104EB0002090B9F1000F0DD121464B46052228461E
:104EC00000F038FD01460446584600F099FF0028DE
:104ED0003FF7B8AD239B039F6FEA030A4FF000082A
:104EE0002146284600F004FD002E3FF4A7AEB8F19D
:104EF000000F05D0B04503D04146284600F0F8FC2D
:104F00003146284600F0F4FC98E600242646E1E706
:104F1000C246264696E50B9BDDF82090002B00F05C
:104F2000FD80002F05DD31463A46284600F0F8FEA8
:104F30000646B8F1000F5CD07168284600F098FC76
:104F4000074628B9804B024640F2EA21FFF728BB0A
:104F500032690232920006F10C010C30FDF720FCA0
:104F600001223946284600F0DBFE039B01330893FB
:104F7000039B4B440A93049B03F00103B04609933F
:104F80000646089B2146013B58460493FFF76CFAFE
:104F9000034630330690414658460B9300F030FFED
:104FA000324681462146284600F046FFC2680B9BE8
:104FB000074602BB0146584600F022FF0B9B024603
:104FC00039462846CDE90B3200F092FC229B0C9A20
:104FD000089F43EA0201099B0B430B9B0DD1392B20
:104FE00029D0B9F1000F01DD069B3133049A13700B
:104FF00076E73046B9E70122E2E7B9F1000F06DBB8
:10500000229941EA0909099959EA010120D1002AA6
:10501000ECDD594601222846089300F081FE214626
:10502000834600F0EDFE0028089B02DCDED1DA07A3
:10503000DCD5392BD8D1049A392313703B461F464F
:10504000013B17F8012C392A50D001321A7047E77A
:10505000002A03DD392BEED00133C7E7089A0A99FD
:1050600002F8013C8A422AD0594600230A222846E7
:1050700000F060FCB04583464FF000034FF00A0299
:105080004146284607D100F055FC80460646089B5D
:105090000133089375E700F04DFC3146804600234C
:1050A0000A22284600F046FC0646F0E7B9F1000F58
:1050B000039ACCBF4F46012717444FF000085946CA
:1050C00001222846089300F02BFE2146834600F07B
:1050D00097FE0028B2DC02D1089BDB07AED43B462A
:1050E0001F4613F8012D302AFAD0F9E6039A9A42A6
:1050F000A5D10AF1010A312379E7144BFFF7A7BACA
:10510000269B002B7FF480AA114BFFF7A0BAB9F1C0
:10511000000F03DC229B022B3FF7CBAE039F2146FF
:105120005846FFF7A1F900F1300307F8013B039A55
:10513000BA1A9145BADD594600230A22284600F0E2
:10514000F9FB8346EBE700BFAB78000888760008E0
:1051500009780008014B1868704700BF2C00002038
:105160000369B3EB611F2DE9F0434FEA611200F1CF
:10517000140445DD11F01F0104EB830604EB8205E6
:105180000CD100F110072946B14234D39B1A9B0081
:10519000EA1E964238BF0023234415E054F82270DB
:1051A000C1F12008CF4005F1040EA1467645F44632
:1051B00015D89A1A9200043A0135AE4238BF00223F
:1051C000A318A75007B104331A1BA3424FEAA20247
:1051D00008BF0023026108BF4361BDE8F083DCF82B
:1051E00000C00CFA08FC4CEA070749F8047B5EF89B
:1051F000047BCF40DAE751F804CB47F804CFC3E78C
:105200002346E1E7A0F13003092B02D82038C0B2D1
:105210007047A0F16103052B01D84738F7E7A0F1EB
:105220004103052B01D82738F1E700207047000023
:105230002DE9F04F8BB08B460593B24B02901B6863
:10524000039318469046FBF7A7FE039BDBF800206C
:105250000344824613F8013C0693931CC2F1FF22DB
:1052600002F57F02FE32D1181F4613F8010B01919F
:105270003028F8D0FFF7C6FF044600283AD103993A
:105280005246384601F01EF90546002866D117F847
:105290000A0007EB0A06FFF7B5FF002860D0334687
:1052A000187830281F4603F10103F9D0FFF7AAFF51
:1052B0000123B0FA80F46409354601933A46164654
:1052C00001323078FFF79EFF0028F8D1039952464B
:1052D000304601F0F7F880B94DB906EB0A052A46C9
:1052E000164601323078FFF78DFF0028F8D1AD1B4C
:1052F000AD0004E000242546E0E7002DF7D1337827
:1053000003F0DF03502B39D173782B2B2AD02D2BB0
:105310002CD0711C4FF000090878FFF773FF431E73
:10532000DBB2182B2AD8A0F1100211F8010FFFF7F9
:1053300069FF431EDBB2182B1BD9B9F1000F00D057
:1053400052421544CBF80010D4B1019B002B14BF7E
:105350000027062738460BB0BDE8F08F3E462546AD
:105360000124CCE74FF00009B11CD5E74FF001094B
:10537000FAE70A2303FB0202103AD6E73146E1E7D7
:10538000F31B013B2146072B0ADC029800F070FA60
:10539000044640B95C4B0246DE215C4801F0B4F89B
:1053A00001315B10EFE700F114094FF0000BCAF177
:1053B0000103CDF81090CDF804B00893B7423FD365
:1053C000049F019B47F8043BA7EB0907BF10276127
:1053D000184600F03FFB7F01D8F800603F1AB74243
:1053E00062DDBF1B3946204600F0D5FE8246A8B1DB
:1053F0007B1E591103F01F0259F821104FF0010ACA
:105400000AFA02F20A4209D0534505DDB91E2046C8
:1054100000F0C1FE002844D14FF0020A3946204670
:10542000FFF79EFE3D44D8F80830AB424ADA0298B6
:10543000214600F05DFA149A00231360A32789E740
:10544000731E069A079316F8013C934219D0BBF1DC
:10545000200F07D1049B019A43F8042B04930023E7
:1054600001939B4616F8010CFFF7CCFE019B00F060
:105470000F0000FA0BF0034301930BF1040B079BA1
:105480000DE0089A731E1344BB42E0D318460399FB
:105490000993524601F016F8099B0028D7D11E4601
:1054A0008CE74FF0030AB9E709DAF71B21460298A7
:1054B0003A4600F035FCED1B044600F114094FF0AC
:1054C000000AB0E7D8F80400A84271DD451BAE42DF
:1054D00035DCD8F80C30022B29D0032B2BD0012B34
:1054E0001CD1AE421AD1012E12D1059AD8F804303F
:1054F000136001232361C9F80030149B62271C60EC
:1055000028E700BF44790008AB780008BC780008A1
:10551000711E204600F03FFE0028E6D10298214689
:1055200000F0E6F9149A00231360502712E7159B48
:10553000002BF3D1D9E7159B002BD6D1EEE76F1ED8
:10554000BAF1000F31D127B13946204600F023FED1
:1055500082467B11012159F8233007F01F0701FA19
:1055600007F71F422946204618BF4AF0020A761B59
:10557000FFF7F6FDD8F804500227BAF1000F48D023
:10558000D8F80C30022B15D0032B17D0012B09D1E2
:105590001AF0020F06D0D9F800004AEA000A1AF001
:1055A000010F0ED147F0100733E04FF0010AD0E7AA
:1055B0000127E2E7159BC3F101031593159B002B0F
:1055C000F0D0D4F810B004F114034FEA8B0A03EBC7
:1055D0008B014FF0000C184653F8042BB2F1FF3F3B
:1055E0001CD001320260022F04F114033DD1D8F81F
:1055F0000020013AB2420AD17111012253F8213040
:1056000006F01F0602FA06F61E4218BF174647F0BC
:105610002007149B1C60059B1D609BE6994243F884
:1056200004CCD8D8A3689B4517DB61680298013188
:1056300000F01EF9814618B91A4B02468421ACE6E7
:105640002269023204F10C0192000C30FDF7A8F837
:105650002146029800F04CF94C4623695A1C04EB91
:105660008303226101225A61BDE722695A450BDD9D
:1056700001212046FFF774FDD8F808300135AB4210
:10568000FFF6D5AE0127C2E716F01F06FAD0534445
:10569000C6F1200653F8040C00F0DCF9B042E7DB59
:1056A000F0E700BFAB780008C2F10802920070B5C5
:1056B000C2F120064368046803FA06F52C43D34080
:1056C000046040F8043F8842F4D370BD30B50368ED
:1056D000013311F8014B14B90360012030BD13F8F8
:1056E000012BA2F14105192D98BF2032A242F0D022
:1056F0000020F3E72DE9F04F0B685E1102EB860600
:1057000013F01F0387B018BF04360025371F9046DB
:1057100002680193824646F8045CB9463C4602950D
:10572000AB465178531C039341B30846059204914C
:10573000FFF768FD00284FD10499059A202918D851
:10574000029B9B4513DD4C4506D2072D04DC2A46FF
:1057500049462046FFF7A8FF444550D90023A4F14D
:10576000040944F8043CCDF808B04C461D46039AA1
:10577000D7E7292956D10232CAF80020BBF1000F21
:1057800050D04C4506D2072D04DC2A464946204617
:10579000FFF78AFF444534D9A8F10402234653F8A1
:1057A000041B42F8041F9F42F9D23B1B23F0030362
:1057B00004330134033EB44288BF0423434400222F
:1057C00043F8042B9F42FBD23B681BB9474527D1C6
:1057D00001233B60052026E00135082D0BF1010B6C
:1057E00006DD4445C3D9002344F8043C0125043CAC
:1057F000226800F00F0040EA02122260B7E7082595
:10580000B5E7019B002BDFD04FF0FF32C3F120033F
:1058100022FA03F356F8042C1A4046F8042CD3E776
:10582000043FD1E7042007B0BDE8F08F004870477F
:105830008401002082B001B901A942B14BB11378B3
:105840000B601278101E18BF012002B0704710467E
:10585000FBE76FF00100F8E7014800F086BE00BFEB
:105860004C020020014800F081BE00BF4C02002025
:1058700070B5466A04460D4676B91020FCF780FFE5
:105880000246606220B9184B1848662100F03CFEC1
:10589000C0E901660660C660666AF36883B1636A40
:1058A000DB6853F82500B8B9012101FA05F6721D2D
:1058B0009200204600F090FC60B1C0E901560EE075
:1058C00021220421204600F087FC636AF060DB6837
:1058D000002BE4D1002070BD026843F8252000238E
:1058E000C0E90333F7E700BF1678000858790008CD
:1058F00070B5466A05460C4676B91020FCF740FFA5
:105900000246686220B9094B09488A2100F0FCFD73
:10591000C0E901660660C6603CB16B6A6268DB681C
:1059200053F82210216043F8224070BD1678000819
:10593000587900082DE9F0410D6907460C461E46CE
:1059400001F1140C0020DCF8003099B202FB016177
:105950001E0C0B0C02FB063389B2013001EB034134
:1059600085424CF8041B4FEA1346ECDC0EB3A368E7
:10597000AB4219DC616838460131FFF779FF804698
:1059800028B902460C4B0D48B52100F0BDFD226937
:10599000023204F10C0192000C30FCF701FF2146A9
:1059A0003846FFF7A5FF444604EB850301355E61E9
:1059B00025612046BDE8F081AB78000858790008E1
:1059C0002DE9F8430C4615461F46092208330646C2
:1059D00093FBF2F3002101229A4209DB3046FFF7E4
:1059E00047FF40B90246194B1948CE2100F08CFD03
:1059F00052000131F0E7089B4361092D4FF001038C
:105A0000036116DD04F10909C8462C4418F8013B6E
:105A10000146303B0A223046FFF78CFFA045F5D106
:105A2000A5F108044C442D1B6319BB4204DBBDE8FF
:105A3000F8830A340925F6E714F8013B0146303BA8
:105A40000A223046FFF776FFEEE700BFAB7800088A
:105A500058790008020C12040346CAB90304102046
:105A600013F07F4F04BF1B02083013F0704F04BFC8
:105A70001B01043013F0404F04BF9B000230002B89
:105A800005DB13F0804F00F1010008BF20207047B4
:105A90000020E5E70368024613F007000BD0D907A2
:105AA00021D4980749BF5B089B08012013605CBFA5
:105AB00013600220704799B209B91B0C1020D9B2AB
:105AC00009B908301B0A190704BF1B0904309907DC
:105AD00004BF9B080230D90703D45B0800F1010022
